:03000000020AB33E
:0C0AB300787FE4F6D8FD758165020AFA30
:1006620017021703180319021503160317031703BA
:1006720017031803190216031703180218031703A6
:1006820015021803170318021003150316021503A7
:10069200160317021703180319021A031B031F0379
:1006A2001F0317031803190216031703180317036E
:1006B20018031F031F021603170318031703180357
:1006C200200320021F031B031F66200321032003B4
:1006D2001F031B031F661F031B03190319031503C3
:1006E2001A661A031903150315031703166617046E
:1006F2001804180319031F031B031F662003210399
:1007020020031F031B031F661F031B031903190387
:1007120015031A661A03190319031F031B031F008B
:100722001A031A031A031B031B031A0319031902E0
:100732001703151715031603170318031704180ECA
:1007420018031704180E1866170318031703180363
:10075200200320021F031B031F6620032103200323
:100762001F031B031F661F041B0E1B031903190320
:1007720015031A661A0319031503150317031666E0
:1007820017041804180319031F031B031F66200311
:10079200210320031F031B031F661F031B031903EF
:1007A200190315031A661A03190319031F031B03FE
:1007B2001F00180218031A03190D150315021866F3
:1007C200160217021500FFFF0F0115021602176627
:1007D20018031702150216011502100215000F0167
:1007E20015021602170217031803190215021866DA
:1007F20017031902160317031600170119021B0229
:100802001B701A031A01190219031A031B021A0D8B
:10081200190317001866180319021A02190C180D89
:10082200170316011102110310030F0C1002150019
:100832001F011A01186619031A011B021B031B036D
:100842001B0C1A0D190317001F011A011866190350
:100852001A011002100310031A0C180D17031600C8
:100862000F0115021602177018031702150315035C
:100872001666160316021603150310021001110163
:10088200116610030F0C1A021902160316031866DA
:1008920018031802170316031900FFFF17031603A4
:1008A2001701160317031603150110031503160289
:1008B200160D1703160315031003100E15040F016E
:1008C2001703160317011603170316031501100366
:1008D20015031602160D170316031503100315034D
:1008E2001601170316031701160317031603150142
:1008F200100315031602160D170316031503100332
:10090200100E15040F0117031903190119031A0315
:1009120019031701160316031602160D1703160301
:1009220015031003100D1500190319031A031F03F1
:100932001B031B031A03170D16031603160D1701CB
:100942001703170319031A021A021003170D1603CD
:100952001601170319031903170319021F021B03B8
:100962001A031A0E1B0417021A031A031A0E1B0487
:100972001A03190317031603170D16031703190198
:10098200190319031A031F031B031B031A03170D71
:1009920016031603160317011703170319031A0286
:1009A2001A021003170D1603160117031903190370
:1009B200170319031F021B031A031A0E1B04170243
:1009C2001A031A031A0E1B0417161A031A031A0E15
:1009D2001B041A031903170316030F021003150051
:1009E200FFFF18301C1020401C10181020101C1083
:1009F20018401C2020201C2018202080FF20301CA2
:100A020010182015201C202020264020202B2026D4
:100A12002020203080FF20201C10181020202620AB
:100A22002B2030202B4020201C10181020202620A4
:100A32002B2030202B4020301C10182015201C2089
:100A42002020264020202B202620202030802030ED
:100A52001C1020101C10202026202B2030202B4080
:100A620020151F0520101C10202026202B203020AE
:100A72002B4020301C10182015201C20202026403E
:100A820020202B2026202020303020301C1018401F
:100A92001C20202026401360182015401340188087
:100AA20000F88BF95BFA14FA66FB03FB8FFC0BFD73
:010AB200EE55
:100B3F00130F79696E66753A20202020202020201F
:100B4F00202020200013226D757369633A20202026
:100B5F0020202020202020202000202A37F88BF969
:100B6F005BFA14FA66FB03FB8FFC0BFC43FCABFD3B
:100B7F0008FD33FD81FDC7FE05FB21FE55FE84FEFA
:100B8F0099FEC0FEE3FF020708010204081020408F
:040C71007F0A7E0078
:100C7500E4FDFCC3ED9FEC9E500F7B057A61DAFE27
:090C8500DBFA0DBD00010C80EA50
:010C8E002243
:100C8F0075890185358C85368AD2A9D2AFC28C225F
:10000E00120BF8120C8FD2A4AF90EF2411700302D2
:10001E00012724F270030200AB1460030201A01248
:10002E000C71E59064FE60030201A07F89120CAC96
:10003E007F31120CB6E4F561F562C28CE56225E003
:10004E00FFE56133FE74A32FF582740A3EF583E457
:10005E0093F53574A42FF582740A3EF583E493F577
:10006E0036D28CE4F563F564120C71E590B4FE1192
:10007E000564E56470020563D394E8E56394034078
:10008E00E7120BF8D2A4C28CE59064FE60FA120C53
:10009E0071E590B4FE0280F0C28C0201A0120C71C8
:1000AE00E59064FD706E7F89120CAC7F32120CB637
:1000BE00756100756201C28CE56225E0FFE5613372
:1000CE00FE74A32FF582740A3EF583E493F535741E
:1000DE00A42FF582740A3EF583E493F536D28CE4B0
:1000EE00F563F564120C71E590B4FD110564E564D9
:1000FE0070020563D394E8E563940340E7120BF8AE
:10010E00D2A4C28CE59064FD60FA120C71E590B435
:10011E00FD0280F0C28C0201A0120C71E59064EF1A
:10012E00706E7F89120CAC7F33120CB67561007540
:10013E006202C28CE56225E0FFE56133FE74A32FF7
:10014E00F582740A3EF583E493F53574A42FF58297
:10015E00740A3EF583E493F536D28CE4F563F564C8
:10016E00120C71E590B4EF110564E564700205633D
:10017E00D394E8E563940340E7120BF8D2A4C28C43
:10018E00E59064EF60FA120C71E590B4EF0280F026
:10019E00C28CAFB0EF248170030203B624C070038B
:1001AE0002033A24E070030202BE24F0700302023E
:1001BE004224F16003020434120C71E5B064FE7047
:1001CE006E7F89120CAC7F34120CB67561007562AD
:1001DE0003C28CE56225E0FFE56133FE74A32FF5C3
:1001EE0082740A3EF583E493F53574A42FF5827478
:1001FE000A3EF583E493F536D28CE4F563F564128A
:10020E000C71E5B0B4FE110564E56470020563D3AC
:10021E0094E8E563940340E7120BF8D2A4C28CE590
:10022E00B064FE60FA120C71E5B0B4FE0280F0C24A
:10023E008C020434120C71E5B064EF706E7F89127B
:10024E000CAC7F35120CB6756100756204C28CE57C
:10025E006225E0FFE56133FE74A32FF582740A3E3A
:10026E00F583E493F53574A42FF582740A3EF58375
:10027E00E493F536D28CE4F563F564120C71E5B0B7
:10028E00B4EF110564E56470020563D394E8E56389
:10029E00940340E7120BF8D2A4C28CE5B064EF6071
:1002AE00FA120C71E5B0B4EF0280F0C28C02043485
:1002BE00120C71E5B064DF706E7F89120CAC7F3664
:1002CE00120CB6756100756205C28CE56225E0FF01
:1002DE00E56133FE74A32FF582740A3EF583E49331
:1002EE00F53574A42FF582740A3EF583E493F53642
:1002FE00D28CE4F563F564120C71E5B0B4DF110530
:10030E0064E56470020563D394E8E563940340E703
:10031E00120BF8D2A4C28CE5B064DF60FA120C7135
:10032E00E5B0B4DF0280F0C28C020434120C71E529
:10033E00B064BF706E7F89120CAC7F37120CB6752D
:10034E006100756206C28CE56225E0FFE56133FE51
:10035E0074A32FF582740A3EF583E493F53574A4E5
:10036E002FF582740A3EF583E493F536D28CE4F5CC
:10037E0063F564120C71E5B0B4BF110564E56470E9
:10038E00020563D394E8E563940340E7120BF8D2B9
:10039E00A4C28CE5B064BF60FA120C71E5B0B4BFB4
:1003AE000280F0C28C020434120C71E5B0647F70CE
:1003BE00737F89120CAC7F31120CB67F2E120CB6E5
:1003CE00756100756207C28CE56225E0FFE5613359
:1003DE00FE74A32FF582740A3EF583E493F535740B
:1003EE00A42FF582740A3EF583E493F536D28CE49D
:1003FE00F563F564120C71E5B0B47F110564E56424
:10040E0070020563D394E8E563940340E7120BF89A
:10041E00D2A4C28CE5B0647F60FA120C71E5B0B460
:10042E007F0280F0C28C30A0030204ED120C7130FA
:10043E00A0030204ED7FC9120CAC7F31120CB6E49E
:10044E00F561F56274622562F58274063561F58395
:10045E00E493F4607A74622562F58274063561F570
:10046E0083E493FF75F06484E5F075F00A84FE75FD
:10047E00F00EA42427F8EF75F00A84AFF0EF25E014
:10048E0028F8E6F535EE75F00EA42428F8EF25E0F1
:10049E0028F8E6F5360562E56270020561D28C2415
:1004AE0062F58274063561F583E49375F00A8474FF
:1004BE000825F0F8E6FD7C007E077FD0120BA31214
:1004CE000C75C28C0562E56270020561020452125F
:1004DE000BF8D2A430A0FD120C7120A00280F530D2
:1004EE00A1030205A6120C7130A1030205A67FC955
:1004FE00120CAC7F32120CB6E4F561F56274CA25AB
:10050E0062F58274073561F583E493F4607A74CAF8
:10051E002562F58274073561F583E493FF75F06407
:10052E0084E5F075F00A84FE75F00EA42427F8EF2A
:10053E0075F00A84AFF0EF25E028F8E6F535EE7594
:10054E00F00EA42428F8EF25E028F8E6F53605622B
:10055E00E56270020561D28C24CAF582740735619A
:10056E00F583E49375F00A84740825F0F8E6FD7CB3
:10057E00007E077FD0120BA3120C75C28C0562E5AC
:10058E00627002056102050B120BF8D2A430A1FDB8
:10059E00120C7120A10280F530B203020016120C6B
:1005AE007130B2030200167FC9120CAC7F33120CED
:1005BE00B6E4F561F562749E2562F58274083561C4
:1005CE00F583E493F4607A749E2562F5827408359F
:1005DE0061F583E493FF75F06484E5F075F00A84A9
:1005EE00FE75F00EA42427F8EF75F00A84AFF0EF35
:1005FE0025E028F8E6F535EE75F00EA42428F8EF80
:10060E0025E028F8E6F5360562E56270020561D24E
:10061E008C249EF58274083561F583E49375F00A97
:10062E0084740825F0F8E6FD7C007E077FD0120B5F
:10063E00A3120C75C28C0562E5627002056102059B
:10064E00C4120BF8D2A430B2FD120C7130B20302F8
:04065E00001680F210
:03000B00020C9F45
:0D0C9F00C28C85358C85368AB2A4D28C3289
:030B9F00016500ED
:100C4700C2A68F807F017E00120C58D2A57F057E39
:010C5700009C
:100C5800D3EF9400EE9400400F7DC77C01DCFEDDED
:080C6800FAEF1F70EB1E80E89B
:010C70002261
:0A0CAC00C2A5C2A7120C47C2A52280
:0A0CB600C2A5D2A7120C47C2A52266
:100BF8007F38120CAC7F0C120CAC7F06120CAC7F49
:100C080001120CAC7F80120CACE4F565740F2565FD
:100C1800F8E6FF120CB60565C3E56564809490405C
:100C2800EB7FC0120CACE4F56574222565F8E6FF8D
:0F0C3800120CB60565C3E5656480949040EB220D
:100ABF0002000EE493A3F8E493A34003F68001F23F
:100ACF0008DFF48029E493A3F85407240CC8C33338
:100ADF00C4540F4420C8834004F456800146F6DF07
:100AEF00E4800B0102040810204080900B3FE47E4D
:100AFF00019360BCA3FF543F30E509541FFEE493FC
:100B0F00A360010ECF54C025E060A840B8E493A3C2
:100B1F00FAE493A3F8E493A3C8C582C8CAC583CAED
:100B2F00F0A3C8C582C8CAC583CADFE9DEE780BEA5
:010BA2000052
:100BA300BC000BBE0029EF8DF084FFADF022E4CC36
:100BB300F875F008EF2FFFEE33FEEC33FCEE9DECFF
:100BC300984005FCEE9DFE0FD5F0E9E4CEFD22ED45
:100BD300F8F5F0EE8420D21CFEADF075F008EF2F8F
:100BE300FFED33FD4007985006D5F0F222C398FD80
:050BF3000FD5F0EA221D
:00000001FF
